:060000000A128A110E280D
:10000800FE00030EFA000A08FB007F08FC000A1233
:100018008A113A2A0A128A11112883120313A90194
:10002800AA01AB01AC01AD01AE01AF01B001830182
:100038000A128A11DE2870087104031D2428252855
:100048002A283F30F0000030F100DD2870037104E9
:10005800031D2F28302835280630F0000030F10025
:10006800DD28023070067104031D3B283C28412816
:100078005B30F0000030F100DD28033070067104B9
:10008800031D472848284D284F30F0000030F10064
:10009800DD28043070067104031D5328542859289C
:1000A8006630F0000030F100DD280530700671047C
:1000B800031D5F28602865286D30F0000030F100CE
:1000C800DD28063070067104031D6B286C28712822
:1000D8007D30F0000030F100DD2807307006710433
:1000E800031D772878287D280730F0000030F100BC
:1000F800DD28083070067104031D832884288928A8
:100108007F30F0000030F100DD28093070067104FE
:10011800031D8F28902895286F30F0000030F100DB
:10012800DD280A3070067104031D9B289C28A1282D
:100138007730F0000030F100DD280B3070067104D4
:10014800031DA728A828AD287C30F0000030F10056
:10015800DD280C3070067104031DB328B428B928B3
:100168003930F0000030F100DD280D3070067104E0
:10017800031DBF28C028C5285E30F0000030F100FC
:10018800DD280E3070067104031DCB28CC28D12839
:100198007930F0000030F100DD280F30700671046E
:1001A800031DD728D828DD287130F0000030F10071
:1001B800DD2808000A128A11DE220A128A11063086
:1001C8000A128A11D2210A128A110A128A110123EB
:1001D8000A128A110A3083120313A00040300A124F
:1001E8008A1169210A128A1183120313AF01B0011F
:1001F800091489108316031788120813831203132E
:10020800060D060D0139A200A3012F0330040319BE
:100218000E291029013011290030A400A501220857
:100228002405A60023082505A70026082704031986
:100238001E291F2925290130A20022088707AF019E
:10024800B001060EA200A20C220C0139A300A401E1
:1002580002302F0630040319322934290130352998
:100268000030A500A60123082505A70024082605B7
:10027800A8002708280403194229432947290130DF
:100288008702AF01B001C3309F05203083120313EA
:10029800A200A20B4D290000831203139F142E08FD
:1002A800803A803C031D5A292D08070203185D294E
:1002B8005E29622983120313061402298312031389
:1002C800061002290A128A110E2883120313A100AC
:1002D8008B178B160B1183160313811281110230B1
:1002E800831203132106031D7A297B298029F830FC
:1002F800831603138105CE2904302106031D8529A1
:1003080086298D29831603130108F83901388100DD
:10031800CE2908302106031D922993299A2983168C
:1003280003130108F83902388100CE29103021065C
:10033800031D9F29A029A729831603130108F8394B
:1003480003388100CE2920302106031DAC29AD29B0
:10035800B429831603130108F83904388100CE291B
:1003680040302106031DB929BA29C1298316031370
:100378000108F83905388100CE2980302106031D8F
:10038800C629C729CE29831603130108F839063868
:100398008100CE29831220088100080083120313EC
:1003A800A00007302006031DDA29DB29DF29703079
:1003B800831603138F04063083122006031DE529D4
:1003C800E629EC29831603130F088F3960388F004C
:1003D800053083122006031DF229F329F929831613
:1003E80003130F088F3950388F000430831220060A
:1003F800031DFF29002A062A831603130F088F39C5
:1004080040388F00033083122006031D0C2A0D2A62
:10041800132A831603130F088F3930388F000230E0
:1004280083122006031D192A1A2A202A8316031369
:100438000F088F3920388F0083122003031D252AC7
:10044800262A2C2A831603130F088F3910388F0099
:1004580083122008031D312A322A362A8F30831648
:1004680003138F05831603130F1408000B1C3D2A72
:100478003E2A512A83120313861B432A442A482AF8
:100488000130AF000030B000061B4B2A4C2A502A1E
:100498000230AF000030B0000B10831203130C1FA2
:1004A800562A572A5F2A1E08F800F9017808AD0075
:1004B8007908AE000C130B1D622A632A912A091CC5
:1004C800662A672A7B2A2E08F3002D08F2000230DC
:1004D800F4000030F5000A128A119A220A128A11D1
:1004E8007208831203138800091089148E2A2E08B3
:1004F800F3002D08F2000130F4000030F5000A1274
:100508008A119A220A128A11720883120313880028
:10051800091489100A3081000B117C08FF007B0840
:100528008A007A0E8300FE0E7E0E0900740375049D
:10053800031D9F2AA02AB62A0F307205F00000304A
:100548007305F1000A128A111F200A128A11710814
:1005580083120313AC007008AB002C08F3002B08BF
:10056800F200DD2A023074067504031DBC2ABD2A78
:10057800DD2A7308F7007208F6000430FF00770DD3
:10058800F70CF60CFF0BC32A0F307605F00000308D
:100598007705F1000A128A111F200A128A117108C0
:1005A80083120313AA007008A9002A08F300290877
:1005B800F2000800C030831603138600C03083128F
:1005C800031386008B178B150B10C030831603138B
:1005D8009600C030950081138701831203138701A9
:1005E80083160313880183120313880183160313E8
:1005F800890183120313890108008312031305106C
:100608008316031305148316031708140B17831690
:1006180003130C17831203130C139F131F1783164E
:1006280003139F121F129F13831203131F14073003
:0E06380083120313A000A00B1F2B000008006C
:08400000FF3FFF3FFF3FFF3FC0
:04400E00D420FF3F7C
:00000001FF
