:060000000A128A110C280F
:10000800FE00030EF0000A08F1000A128A11DF2828
:100018000A128A110F28FA01FB0183010A128A11B8
:1000280015280A128A11FD200A128A1106300A12AE
:100038008A1180200A128A110A128A111A210A12B8
:100048008A11FA01FB0183120313060D060D01390B
:10005800F300F4017A037B040319332835280130AF
:1000680036280030F500F60173087505F7007408A6
:100078007605F800770878040319432844284A28A5
:100088000130F30073088707FA01FB01060EF3003D
:10009800F30C730C0139F400F50102307A067B0485
:1000A80003195728592801305A280030F600F7015B
:1000B80074087605F80075087705F900780879045A
:1000C8000319672868286C2801308702FA01FB01A8
:1000D800C3309F050830F300F30B70288312031315
:1000E8009F149F187828792875280C131E088800F3
:1000F80027280A128A110C28F20007307206031DFD
:10010800862887288B287030831603138F040630BF
:100118007206031D902891289728831603130F0849
:100128008F3960388F0005307206031D9C289D2882
:10013800A328831603130F088F3950388F00043013
:100148007206031DA828A928AF28831603130F08D1
:100158008F3940388F0003307206031DB428B52844
:10016800BB28831603130F088F3930388F000230ED
:100178007206031DC028C128C728831603130F0859
:100188008F3920388F007203031DCB28CC28D22842
:10019800831603130F088F3910388F007208031D58
:1001A800D628D728DB288F30831603138F058316AC
:1001B80003130F1408000B1CE228E328F628831207
:1001C8000313861BE828E928ED280130FA000030DF
:1001D800FB00061BF028F128F5280230FA00003051
:1001E800FB000B1071088A00700E8300FE0E7E0E55
:1001F8000900C030831603138600C030831203132E
:1002080086008B178B150B10C030831603139600CE
:10021800C030950081138701831203138701831669
:100228000313880183120313880108008312031340
:100238000510831603130514831603170814831275
:1002480003139F131F17831603139F121F129F1365
:10025800831203131F140830F200F20B312908002F
:08400000FF3FFF3FFF3FFF3FC0
:04400E00D420FF3F7C
:00000001FF
