:060000000A128A110E280D
:10000800FE00030EFA000A08FB007F08FC000A1233
:100018008A11392A0A128A11112883120313AA0194
:10002800AB01AC01AD01AE01AF01B001B10183017B
:100038000A128A11DE2870087104031D2428252855
:100048002A283F30F0000030F100DD2870037104E9
:10005800031D2F28302835280630F0000030F10025
:10006800DD28023070067104031D3B283C28412816
:100078005B30F0000030F100DD28033070067104B9
:10008800031D472848284D284F30F0000030F10064
:10009800DD28043070067104031D5328542859289C
:1000A8006630F0000030F100DD280530700671047C
:1000B800031D5F28602865286D30F0000030F100CE
:1000C800DD28063070067104031D6B286C28712822
:1000D8007D30F0000030F100DD2807307006710433
:1000E800031D772878287D280730F0000030F100BC
:1000F800DD28083070067104031D832884288928A8
:100108007F30F0000030F100DD28093070067104FE
:10011800031D8F28902895286F30F0000030F100DB
:10012800DD280A3070067104031D9B289C28A1282D
:100138007730F0000030F100DD280B3070067104D4
:10014800031DA728A828AD287C30F0000030F10056
:10015800DD280C3070067104031DB328B428B928B3
:100168003930F0000030F100DD280D3070067104E0
:10017800031DBF28C028C5285E30F0000030F100FC
:10018800DD280E3070067104031DCB28CC28D12839
:100198007930F0000030F100DD280F30700671046E
:1001A800031DD728D828DD287130F0000030F10071
:1001B800DD2808000A128A11DD220A128A11063087
:1001C8000A128A11D1210A128A110A128A110023ED
:1001D8000A128A110A3083120313A00040300A124F
:1001E8008A1168210A128A1183120313B001B1011E
:1001F800091489108316031788120813831203132E
:10020800060D060D0139A300A401300331040319BA
:100218000E291029013011290030A500A601230854
:100228002505A70024082605A8002708280403197F
:100238001E291F2925290130A30023088707B0019B
:10024800B101060EA300A30C230C0139A400A501DB
:100258000230300631040319322934290130352996
:100268000030A600A70124082605A80025082705B0
:10027800A9002808290403194229432947290130DC
:100288008702B001B1010130A0000030A1000A12BC
:100298008A1122230A128A11831203132F08803A23
:1002A800803C031D59292E08070203185C295D2983
:1002B80061298312031306140229831203130610FB
:1002C80002290A128A110E2883120313A1008B1720
:1002D8008B160B11831603138112811102308312BE
:1002E80003132106031D79297A297F29F8308316FB
:1002F80003138105CD2904302106031D842985298E
:100308008C29831603130108F83901388100CD2997
:1003180008302106031D9129922999298316031370
:100328000108F83902388100CD2910302106031D53
:100338009E299F29A629831603130108F839033833
:100348008100CD2920302106031DAB29AC29B32912
:10035800831603130108F83904388100CD29403089
:100368002106031DB829B929C029831603130108DA
:10037800F83905388100CD2980302106031DC529AB
:10038800C629CD29831603130108F83906388100D8
:10039800CD29831220088100080083120313A000CE
:1003A80007302006031DD929DA29DE297030831683
:1003B80003138F04063083122006031DE429E52960
:1003C800EB29831603130F088F3960388F00053027
:1003D80083122006031DF129F229F8298316031335
:1003E8000F088F3950388F00043083122006031D00
:1003F800FE29FF29052A831603130F088F39403871
:100408008F00033083122006031D0B2A0C2A122AA0
:10041800831603130F088F3930388F000230831288
:100428002006031D182A192A1F2A831603130F08EA
:100438008F3920388F0083122003031D242A252A90
:100448002B2A831603130F088F3910388F00831255
:100458002008031D302A312A352A8F3083160313CA
:100468008F05831603130F1408000B1C3C2A3D2A22
:10047800502A83120313861B422A432A472A013033
:10048800B0000030B100061B4A2A4B2A4F2A02301E
:10049800B0000030B1000B10831203130C1F552A53
:1004A800562A5E2A1E08F800F9017808AE00790875
:1004B800AF000C130B1D612A622A902A091C652AB9
:1004C800662A7A2A2F08F3002E08F2000230F40078
:1004D8000030F5000A128A1199220A128A1172084C
:1004E800831203138800091089148D2A2F08F3003A
:1004F8002E08F2000130F4000030F5000A128A11CB
:1005080099220A128A1172088312031388000914A7
:1005180089100A3081000B117C08FF007B088A00D3
:100528007A0E8300FE0E7E0E090074037504031D07
:100538009E2A9F2AB52A0F307205F00000307305F5
:10054800F1000A128A111F200A128A1171088312F7
:100558000313AD007008AC002D08F3002C08F2005E
:10056800DC2A023074067504031DBB2ABC2ADC2A67
:100578007308F7007208F6000430FF00770DF70CD7
:10058800F60CFF0BC22A0F307605F0000030770515
:10059800F1000A128A111F200A128A1171088312A7
:1005A8000313AB007008AA002B08F3002A08F20016
:1005B8000800C030831603138600C030831203136B
:1005C80086008B178B150B10C0308316031396000B
:1005D800C0309500811387018312031387018316A6
:1005E80003138801831203138801831603138901F7
:1005F800831203138901080083120313051083165D
:10060800031305148316031708140B178316031313
:100618000C17831203130C139F131F17831603134E
:100628009F121F129F13831203131F14203083126B
:100638000313A000A00B1E2B000008008312031355
:1006480020032104031D292B2A2B362BC3309F0599
:10065800203083120313A200A20B302B0000831258
:0606680003139F140800BB
:08400000FF3FFF3FFF3FFF3FC0
:04400E00D420FF3F7C
:00000001FF
