:060000000A128A110C280F
:10000800FE00030EF0000A08F1000A128A11C8283F
:100018000A128A110F28FA01FB0183010A128A11B8
:100028007428F20007307206031D1B281C2820289C
:100038007030831603138F0406307206031D2528BB
:1000480026282C28831603130F088F3960388F0051
:1000580005307206031D3128322838288316031309
:100068000F088F3950388F0004307206031D3D2861
:100078003E284428831603130F088F3940388F0011
:1000880003307206031D49284A2850288316031393
:100098000F088F3930388F0002307206031D55283B
:1000A80056285C28831603130F088F3920388F00D1
:1000B8007203031D602861286728831603130F083D
:1000C8008F3910388F007208031D6B286C28702830
:1000D8008F30831603138F05831603130F1408003C
:1000E8000A128A11E6200A128A1104300A128A11A9
:1000F80015200A128A11FA01FB0183120313060D57
:10010800060D0139F300F4017A037B0403198D28E5
:100118008F28013090280030F500F6017308750526
:10012800F70074087605F8007708780403199D2805
:100138009E28A4280130F30073088707FA01FB0101
:10014800060EF300F30C730C0139F400F5010230CC
:100158007A067B040319B128B3280130B42800308B
:10016800F600F70174087605F80075087705F900B8
:10017800780879040319C128C22881280130870228
:100188007F280A128A110C280B1CCB28CC28DF28C0
:1001980083120313861BD128D228D6280130FA00EF
:1001A8000030FB00061BD928DA28DE280230FA00C6
:1001B8000030FB000B1071088A00700E8300FE0EE1
:1001C8007E0E0900C030831603138600C0308312E8
:1001D800031386008B178B150B10C030831603137F
:1001E8009600C0309500811387018312031387019D
:0201F8000800FD
:08400000FF3FFF3FFF3FFF3FC0
:04400E00D420FF3F7C
:00000001FF
